:020000040000FA
:101C80000E308A00492E0E308A00871B3B2E871F9C
:101C9000472E303090009030980083162630980000
:101CA00003178715830118121A081A088F018E016D
:101CB0000C10B7261014B72610100C18562E0E084C
:101CC0008316990083120F0883169A008312181640
:101CD00020308400A3270F3A031D522E0F309A277D
:101CE000A3270F3A03196E2E0008043A03197F2E1A
:101CF0000008053A031D7D2EA327840A702E831643
:101D00000403A300A30320308400A001A101000864
:101D1000C026840A04082302031D872E200800021F
:101D2000031D522E840A21080002031D522EA00119
:101D3000A1018312220884002108831203178D0059
:101D400004088F002630840083010A302002031823
:101D5000522E20088207DD2EE62E082F7C2F222F00
:101D6000562F6A2F7C2F00000E308A003B2E640015
:101D70000C180800871BB82E871FBC2E080083167E
:101D80002106A2002008A1002208A000200E0F3981
:101D9000A006200EF039A106A00E0310200D031896
:101DA000013EA106E039A106A00EA0060800C00170
:101DB00001030002400E000001010630A500A6014B
:101DC00083120317D7308D000E308F00FB26892732
:101DD000C02604088927C026831203178D0A031919
:101DE0008F0A83010130A502031CA60326082504DF
:101DF000031DE62E7F2F831603178C170C1400008B
:101E00000000831203170E0884000C0883010800E9
:101E1000FB26BF260408C026831203178D0A031968
:101E20008F0A0D080F39031D082F84278301013005
:101E3000A502031CA60326082504031D082F802FD6
:101E4000402E402E831203170F308F05FC308D0576
:101E50000E300F02403003190D02031C3C2F1030CE
:101E60000F02003003190D0203183C2F83160317CD
:101E70008C01402F402E402E8316031784308C0097
:101E8000831203170008840A8C000008840A8E005D
:101E9000AC27831203178D0A03198F0A03300D052F
:101EA000031D402F0313A50B222F7C2F831603172E
:101EB0008C010C140C185A2F831203170C08831270
:101EC00003178D0A03198F0A8927C0268301A50BE2
:101ED000562F7F2F840A0008831203178C00831665
:101EE00004308C00AD278C18732F831203178D0AD2
:101EF0000313A50B6A2F7C2F20088927C02684276F
:101F0000830104309A27662E83160313200889273D
:101F1000210883160313A3000F3A0319972F2308F0
:101F2000043A0319972F2308053A031D992F05300A
:101F30009A272308831264000C1E9C2F831203131C
:101F4000990083160800830164008C1EA52F1A08CF
:101F500080000800402E402E8316640055308D000E
:0C1F6000AA308D008C1400000000080066
:00000001FF
