:020000040000FA
:041C9C000E308A007C
:101CA000572E0E308A00871B492E871F552E9030E5
:101CB00098008316263098006400033081000317D3
:101CC000830118121A081A080310C2268101C226BD
:101CD00001088400040C00000000031CFF3E831672
:101CE00099008312181620308400AA270F3A031D8A
:101CF000602E0F30A127AA270F3A0319792E00086A
:101D0000043A03198A2E0008053A031D882EAA27D3
:101D1000840A7B2E83160403A300A30320308400CF
:101D2000A001A1010008C926840A04082302031D9A
:101D3000922E20080002031D602E840A2108000252
:101D4000031D602EA001A101831222088400210836
:101D5000831203178D0004088F002630840083014E
:101D60000A3020020318602E20088207E62EEF2E8C
:101D7000112F832F2B2F5D2F712F832F00000E30FB
:101D80008A00492E6400871BC32E871FC52E0800BA
:101D900083162106A2002008A1002208A000200E20
:101DA0000F39A006200EF039A106A00E0310200D59
:101DB0000318013EA106E039A106A00EA006080006
:101DC000B201010500024E0E00004B000630A500D6
:101DD000A60183120317E0308D000E308F00042718
:101DE0009027C92604089027C926831203178D0A55
:101DF00003198F0A83010130A502031CA6032608DC
:101E00002504031DEF2E862F831603178C170C1441
:101E100000000000831203170E0884000C088301E1
:101E200008000427C8260408C926831203178D0A50
:101E300003198F0A0D080039031D112F8B27830109
:101E40000130A502031CA60326082504031D112F3B
:101E5000872F4E2E4E2E831203170F308F050E3014
:101E60000F024E3003190D02031C432F10300F02D6
:101E7000003003190D020318432F831603178C013A
:101E8000472F4E2E4E2E8316031784308C0083125C
:101E900003170008840A8C000008840A8E00B32708
:101EA000831203178D0A03198F0A00300D05031DD5
:101EB000472F0313A50B2B2F832F831603178C019A
:101EC0000C140C18612F831203170C0883120317CC
:101ED0008D0A03198F0A9027C9268301A50B5D2F50
:101EE000862F840A0008831203178C00831604309F
:101EF0008C00B4278C187A2F831203178D0A0313D2
:101F0000A50B712F832F20089027C9268B278301CB
:101F10000430A127712E831603132008902721086F
:101F200083160313A3000F3A03199E2F2308043AC4
:101F300003199E2F2308053A031DA02F0530A12762
:101F40002308831264000C1EA32F8312031399002D
:101F500083160800830164008C1EAC2F1A088000D1
:101F600008004E2E4E2E8316640055308D00AA3088
:0A1F70008D008C1400000000080032
:00000001FF
