:020000040000FA
:103C90001E308A00512E1E308A00871B432E871F3C
:103CA0004F2E903098008316263098006400033021
:103CB00081000317830118121A081A080310BC2682
:103CC0008101BC2601088400040C00000000031CD4
:103CD000FF3E831699008312181620308400A62711
:103CE0000F3A031D5A2E0F309D27A6270F3A0319AE
:103CF000732E0008043A0319842E0008053A031DA8
:103D0000822EA627840A752E83160403A300A3031C
:103D100020308400A001A1010008C326840A040801
:103D20002302031D8C2E20080002031D5A2E840A34
:103D300021080002031D5A2EA001A10183122208AE
:103D400084002108831203178D0004088F00263099
:103D5000840083010A30200203185A2E20088207AB
:103D6000E02EE92E0B2F7F2F252F592F6D2F7F2F20
:103D700000001E308A00432E6400871BBD2E871F63
:103D8000BF2E080083162106A2002008A1002208E9
:103D9000A000200E0F39A006200EF039A106A00EBB
:103DA0000310200D0318013EA106E039A106A00E64
:103DB000A0060800B80101050002481E00007000BE
:103DC0000630A500A60183120317DA308D001E30DD
:103DD0008F00FE268C27C32604088C27C326831257
:103DE00003178D0A03198F0A83010130A502031CF2
:103DF000A60326082504031DE92E822F8316031728
:103E00008C170C1400000000831203170E088400A6
:103E10000C0883010800FE26C2260408C32683126C
:103E200003178D0A03198F0A0D080739031D0B2F7D
:103E3000872783010130A502031CA6032608250459
:103E4000031D0B2F832F482E482E831203171F307C
:103E50008F05F8308D051E300F02483003190D0212
:103E6000031C3F2F20300F02003003190D020318EE
:103E70003F2F831603178C01432F482E482E83169D
:103E8000031784308C00831203170008840A8C0007
:103E90000008840A8E00AF27831203178D0A0319C6
:103EA0008F0A07300D05031D432F0313A50B252F84
:103EB0007F2F831603178C010C140C185D2F8312AF
:103EC00003170C08831203178D0A03198F0A8C2716
:103ED000C3268301A50B592F822F840A0008831261
:103EE00003178C00831604308C00B0278C18762FB3
:103EF000831203178D0A0313A50B6D2F7F2F200844
:103F00008C27C3268727830104309D276B2E8316B9
:103F1000031320088C27210883160313A3000F3AEC
:103F200003199A2F2308043A03199A2F2308053AF4
:103F3000031D9C2F05309D272308831264000C1E4F
:103F40009F2F8312031399008316080083016400D6
:103F50008C1EA82F1A0880000800482E482E8316B1
:103F6000640055308D00AA308D008C1400000000D4
:023F7000080047
:00000001FF
